:100000000C942A000C9447000C9447000C94470071
:100010000C944E0C0C9447000C9447000C94000C6C
:100020000C94270C0C9447000C94D90B0C944700AB
:100030000C9447000C9447000C9447000C94470024
:100040000C9447000C9447000C9447000C94470014
:100050000C94470011241FBECFE5D8E0DEBFCDBF12
:1000600011E0A0E6B1E001C01D92A037B107E1F7B1
:1000700011E0A0E6B0E0EEE7F2E202C005900D92DA
:10008000A036B107D9F70E94360B0C943D110C94A1
:100090000000A0E3B0E0EFE4F0E00C940611A8E06B
:1000A0004E010894811C911CF401BA2F1192BA954B
:1000B000E9F729833A834B835C836D837E838F8347
:1000C0009887CE010996FC011192AA95E9F7A986B5
:1000D000BA86CB86DC86ED86FE860F87188B298153
:1000E0003A814B815C812DA73EA74FA758AB790180
:1000F0008A018FEF9FEFA0E0B0E0E822F9220A2307
:100100001B231A014424552429853A854B855C8597
:1001100029A73AA74BA75CA759016A01A822B922CF
:10012000CA22DB223A0188249924C601B501A8011C
:1001300097010E94C5106DA37EA38FA398A7C40149
:10014000B3010E94C51069A37AA38BA39CA3C60127
:10015000B501A20191010E94C5107B018C01C4016F
:10016000B3010E94C5105B016C0189A19AA1ABA1EA
:10017000BCA18E0D9F1DA01FB11F89A39AA3ABA385
:10018000BCA32DA13EA14FA158A5CA01AA27BB27F8
:1001900029A13AA14BA15CA1280F391F4A1F5B1F5F
:1001A00029A33AA34BA35CA32E153F054007510793
:1001B00040F480E090E0A1E0B0E0A80EB91ECA1EB5
:1001C000DB1E89A19AA1ABA1BCA19D0144275527A3
:1001D0002A0D3B1D4C1D5D1D2D8F3E8F4F8F58A34B
:1001E0006C01BB24AA248DA19EA1AFA1B8A5A070CB
:1001F000B070A80EB91ECA1EDB1EA98EBA8ECB8E99
:10020000DC8E9A8C8B8C7C8C9E8D6F8D78A1FE0100
:10021000719688E0DF011D928A95E9F72D8B9E8B00
:100220006F8B788F2D853E854F8558896DA57EA56E
:100230008FA598A90E94C5107B018C012D813E815C
:100240004F81588569A57AA58BA59CA50E94C510EC
:10025000E60EF71E081F191F6D897E898F89988DFC
:100260006E0D7F1D801F911F6D8B7E8B8F8B988FE6
:10027000EE892A2D392D482D572D7E2F8F89988D67
:10028000E096E2E10C942211EF92FF920F93DF933C
:10029000CF93CDB7DEB760970FB6F894DEBF0FBE31
:1002A000CDBFA82F002309F461C07E010894E11C92
:1002B000F11C88E0F70111928A95E9F729833A83C6
:1002C0004B835C836D837E83AF83988780E2801B42
:1002D000E82FFF27E7FDF0954D815E816F817885DE
:1002E000181684F01D861E861F86188A882799276F
:1002F0008E1B9F0B04C076956795579547958A95F9
:10030000D2F728C0202F332727FD3095DB01CA0103
:10031000022E04C0B695A795979587950A94D2F7B3
:100320008D879E87AF87B88B04C0440F551F661F0B
:10033000771FEA95D2F789819A81AB81BC8104C08D
:10034000B695A795979587952A95D2F7482B592B5F
:100350006A2B7B2B49875A876B877C8729853A854F
:100360004B855C856D857E85AF8598898A2F6096E3
:100370000FB6F894DEBF0FBECDBFCF91DF910F91C6
:10038000FF90EF900895EF92FF920F93DF93CF933A
:10039000CDB7DEB760970FB6F894DEBF0FBECDBF06
:1003A000A82F002309F461C07E010894E11CF11C10
:1003B00088E0F70111928A95E9F729833A834B8304
:1003C0005C836D837E83AF83988780E2801BE82FF8
:1003D000FF27E7FDF09549815A816B817C811816D2
:1003E00084F019861A861B861C86882799278E1BFF
:1003F0009F0B04C0440F551F661F771F8A95D2F7C5
:1004000028C0202F332727FD3095DB01CA01022E9B
:1004100004C0880F991FAA1FBB1F0A94D2F78987AF
:100420009A87AB87BC8704C07695679557954795A3
:10043000EA95D2F78D819E81AF81B88504C0880F7F
:10044000991FAA1FBB1F2A95D2F7482B592B6A2B3D
:100450007B2B4D875E876F87788B29853A854B8507
:100460005C856D857E85AF8598898A2F60960FB6ED
:10047000F894DEBF0FBECDBFCF91DF910F91FF90FB
:10048000EF900895AEE5B0E0E8E4F2E00C940611D8
:10049000A8E04E010894811C911CF4016A2E11926F
:1004A0006A94E9F729833A834B835C836D837E8367
:1004B0008F839887CE010996FC011192AA95E9F7DE
:1004C000A986BA86CB86DC86ED86FE860F87188BDA
:1004D00029843A844B845C84ED84FE840F851889DA
:1004E00069807A808B809C806DA67EA68FA698AA54
:1004F0006D807E808F809884E114F10401051105E0
:1005000009F0B3C3621473048404950408F03DC178
:1005100000E0201600E0300601E0400600E0500652
:1005200088F41FEF211631044104510439F030F0F2
:1005300048E0E42EF12C012D112D18C0EE24FF24EB
:10054000870114C020E0221620E0320620E0420697
:1005500021E0520630F038E1E32EF12C012D112D6F
:1005600005C020E1E22EF12C012D112DD201C10197
:100570000E2C04C0B695A795979587950A94D2F747
:10058000805A9F4FDC012C9180E290E0A0E0B0E027
:100590008E199F09A00BB10B7C018D01E21AF108A5
:1005A00001091109E114F10401051105A1F10E2C55
:1005B00004C0220C331C441C551C0A94D2F7A4011D
:1005C00093010E2C04C0220F331F441F551F0A94A1
:1005D000D2F780E290E08E199F096DA47EA48FA4CB
:1005E00098A804C096948794779467948A95D2F7D4
:1005F000622A732A842A952AADA4BEA4CFA4D8A8BF
:1006000004C0AA0CBB1CCC1CDD1CEA94D2F7ADA61E
:10061000BEA6CFA6D8AA6201EE24FF24CDAADEAAE8
:10062000EFAAF8AE920181012070307009AF1AAFC5
:100630002BAF3CAFC401B301A70196010E94E410A7
:100640007B018C01C401B3012DA93EA94FA958AD6E
:100650000E94E410C901DA013C014D01C401B3015B
:1006600029AD3AAD4BAD5CAD0E94C5109B01AC010C
:100670008701FF24EE24ADA4BEA4CFA4D8A8C60150
:10068000AA27BB2757016801A82AB92ACA2ADB2A48
:10069000A216B306C406D506E0F4089461087108F2
:1006A00081089108A20CB31CC41CD51CA214B3046D
:1006B000C404D50470F0A216B306C406D50648F4E7
:1006C00008946108710881089108A20CB31CC41C2D
:1006D000D51CA21AB30AC40AD50AC601B5012DA9B0
:1006E0003EA94FA958AD0E94E4107B018C01C601C0
:1006F000B5012DA93EA94FA958AD0E94E410C9012A
:10070000DA015C016D01C601B50129AD3AAD4BAD11
:100710005CAD0E94C5109B01AC018701FF24EE2453
:100720008DA59EA5AFA5B8A9A070B070E82AF92A3A
:100730000A2B1B2BE216F30604071507C0F40894D6
:10074000A108B108C108D108E20CF31C041D151D55
:10075000E214F3040405150550F0E216F30604074D
:10076000150728F40894A108B108C108D108D301DD
:100770009927882786017501E82AF92A0A2B1B2B5D
:10078000E9AAFAAA0BAB1CABCFC421143104410473
:10079000510471F461E070E080E090E020E030E02E
:1007A00040E050E00E94E410C901DA011C012D0173
:1007B00000E0201600E0300601E0400600E05006B0
:1007C00088F41FEF211631044104510431F028F060
:1007D00048E050E060E070E017C040E050E060E0CA
:1007E00070E012C020E0221620E0320620E042062F
:1007F00021E0520628F048E150E060E070E004C0DB
:1008000040E150E060E070E0D201C101042E04C07C
:10081000B695A795979587950A94D2F7805A9F4FDA
:10082000DC012C91E0E2EE2EF12C012D112DD801EE
:10083000C701841B950BA60BB70B821B9109A1095D
:10084000B1090097A105B10561F464015301A21833
:10085000B308C408D50831E0632E712C812C912C8B
:100860001EC16F968FAF6F97082E04C0220C331CE9
:10087000441C551C0A94D2F7EE2DE81B6401530169
:100880000E2E04C0D694C794B794A7940A94D2F7B6
:10089000A40193016F960FAC6F9704C0220F331F12
:1008A000441F551F0A94D2F76DA47EA48FA498A864
:1008B0000E2E04C096948794779467940A94D2F786
:1008C00084017301E22AF32A042B152BE9A6FAA668
:1008D0000BA71CA732018824992492018101207062
:1008E000307021960CAF1DAF2EAF3FAF2197C601E0
:1008F000B501A40193010E94E4107B018C01C601A3
:10090000B501A40193010E94E410C901DA01259602
:100910008CAF9DAFAEAFBFAF2597BC01CD01219687
:100920002CAD3DAD4EAD5FAD21970E94C5109B0132
:10093000AC018701FF24EE24A9A4BAA4CBA4DCA4B3
:10094000C601AA27BB275C016D01AE28BF28C02ABB
:10095000D12AA216B306C406D50660F525966CAD5D
:100960007DAD8EAD9FAD2597615070408040904029
:1009700025966CAF7DAF8EAF9FAF2597A20CB31CB1
:10098000C41CD51CA214B304C404D50498F0A21648
:10099000B306C406D50670F46150704080409040A4
:1009A00025966CAF7DAF8EAF9FAF2597A20CB31C81
:1009B000C41CD51CA21AB30AC40AD50AC601B501C3
:1009C000A40193010E94E4107B018C01C601B501D2
:1009D000A40193010E94E410C901DA013C014D0118
:1009E000C401B30121962CAD3DAD4EAD5FAD219755
:1009F0000E94C5109B01AC018701FF24EE2489A54C
:100A00009AA5ABA5BCA5A070B07057016801A82A33
:100A1000B92ACA2ADB2AA216B306C406D506E0F410
:100A200008946108710881089108A20CB31CC41CC9
:100A3000D51CA214B304C404D50470F0A216B306E6
:100A4000C406D50648F40894610871088108910825
:100A5000A20CB31CC41CD51C8DA59EA5AFA5B8A91E
:100A60006F960FAC6F9704C0880F991FAA1FBB1F0A
:100A70000A94D2F78DA79EA7AFA7B8ABA21AB30A64
:100A8000C40AD50A2596ECACFDAC0EAD1FAD25977A
:100A9000D70199278827682A792A8A2A9B2A8201DE
:100AA0002227332729960CAF1DAF2EAF3FAF2997D2
:100AB000A2019101407050702D962CAF3DAF4EAF0A
:100AC0005FAF2D97C601B50129962CAD3DAD4EAD5A
:100AD0005FAD29970E94E4107B018C01C601B5012E
:100AE00029962CAD3DAD4EAD5FAD29970E94E41027
:100AF000C901DA0161968CAF9DAFAEAFBFAF619710
:100B0000BC01CD012D962CAD3DAD4EAD5FAD2D9709
:100B10000E94C5109B01AC018701FF24EE24ADA407
:100B2000BEA4CFA4D8A8C601AA27BB275701680135
:100B3000A82AB92ACA2ADB2AA216B306C406D506F1
:100B400060F561966CAD7DAD8EAD9FAD61976150E6
:100B500070408040904061966CAF7DAF8EAF9FAF8C
:100B60006197A20CB31CC41CD51CA214B304C4040A
:100B7000D50498F0A216B306C406D50670F46150E9
:100B800070408040904061966CAF7DAF8EAF9FAF5C
:100B90006197A20CB31CC41CD51CA21AB30AC40AC8
:100BA000D50AC601B50129962CAD3DAD4EAD5FAD60
:100BB00029970E94E4107B018C01C601B50129969A
:100BC0002CAD3DAD4EAD5FAD29970E94E410C9013B
:100BD000DA015C016D01C601B5012D962CAD3DAD6C
:100BE0004EAD5FAD2D970E94C5109B01AC018701F2
:100BF000FF24EE248DA59EA5AFA5B8A9A070B07066
:100C0000E82AF92A0A2B1B2BE216F306040715071C
:100C1000C0F40894A108B108C108D108E20CF31C83
:100C2000041D151DE214F3040405150550F0E21629
:100C3000F3060407150728F40894A108B108C108B1
:100C4000D1086196ECACFDAC0EAD1FAD6197D7013C
:100C50009927882796018501082B192B2A2B3B2BD6
:100C600009AB1AAB2BAB3CAB62C26E147F0480069F
:100C7000910608F451C220E0E21620E0F20621E0DD
:100C8000020720E0120788F43FEFE316F1040105A4
:100C9000110531F028F048E050E060E070E017C046
:100CA00040E050E060E070E012C040E0E41640E058
:100CB000F40640E0040741E0140728F048E150E062
:100CC00060E070E004C040E150E060E070E0D80116
:100CD000C701042E04C0B695A795979587950A94E9
:100CE000D2F7805A9F4FDC012C9130E2A32EB12C19
:100CF000C12CD12CD601C501841B950BA60BB70BBB
:100D0000821B9109A109B1090097A105B10589F4D8
:100D1000E614F7040805190508F4F2C16DA47EA4D1
:100D20008FA498A8621473048404950408F0E8C1A1
:100D3000F3C16E968FAF6E97082E04C0EE0CFF1CA9
:100D4000001F111F0A94D2F76A2D681BD201C1013E
:100D5000062E04C0B695A795979587950A94D2F765
:100D60005C016D01AE28BF28C02AD12AADA2BEA267
:100D7000CFA2D8A6720161016E960FAC6E9704C027
:100D8000CC0CDD1CEE1CFF1C0A94D2F7C9A2DAA21F
:100D9000EBA2FCA264015301062E04C0D694C794B2
:100DA000B794A7940A94D2F7D401C3016E960FACFE
:100DB0006E9704C0880F991FAA1FBB1F0A94D2F711
:100DC000EDA4FEA40FA518A904C016950795F794E5
:100DD000E7946A95D2F737014801682A792A8A2A66
:100DE0009B2A6D8E7E8E8F8E98A2EDA0FEA00FA105
:100DF00018A5380188249924980187012070307043
:100E000065960CAF1DAF2EAF3FAF6597C601B5011C
:100E1000A40193010E94E4107B018C01C601B5017D
:100E2000A40193010E94E410C901DA011C012D0103
:100E3000C201B10165962CAD3DAD4EAD5FAD65977C
:100E40000E94C5109B01AC018701FF24EE24AD8CEC
:100E5000BE8CCF8CD8A0C601AA27BB27570168013A
:100E6000A82AB92ACA2ADB2AA216B306C406D506BE
:100E700000F508942108310841085108EDA0FEA0B2
:100E80000FA118A5AE0CBF1CC01ED11EAE14BF040E
:100E9000C006D10670F0A216B306C406D50648F403
:100EA00008942108310841085108AE0CBF1CC01E2F
:100EB000D11EA21AB30AC40AD50AC601B501A401FB
:100EC00093010E94E4107B018C01C601B501A401CD
:100ED00093010E94E410C901DA013C014D01C401F3
:100EE000B30165962CAD3DAD4EAD5FAD65970E94EB
:100EF000C5109B01AC018701FF24EE248D8D9E8DD2
:100F0000AF8DB8A1A070B07057016801A82AB92AA6
:100F1000CA2ADB2AA216B306C406D50600F5089431
:100F200061087108810891086DA17EA18FA198A523
:100F3000A60EB71EC81ED91EA616B706C806D90625
:100F400070F0A216B306C406D50648F408946108EA
:100F5000710881089108A60EB71EC81ED91ED601B9
:100F6000C501821B930BA40BB50B898F9A8FAB8F96
:100F7000BC8FD1019927882764015301A82AB92A77
:100F8000CA2ADB2AA9AABAAACBAADCAA86017501B9
:100F90002FEF3FEF40E050E0E222F322042315233D
:100FA000A601662777276D964CAF5DAF6EAF7FAF1A
:100FB0006D97A9A0BAA0CBA0DCA06FEF7FEF80E077
:100FC00090E0A622B722C822D92289A19AA1ABA17A
:100FD000BCA11D0144245524C801B701A6019501F7
:100FE0000E94C51069966CAF7DAF8EAF9FAF6997B9
:100FF000C801B701A20191010E94C5103B014C013B
:101000006D966CAD7DAD8EAD9FAD6D97A6019501D2
:101010000E94C5107B018C016D966CAD7DAD8EADCF
:101020009FAD6D97A20191010E94C5105B016C01FB
:10103000A8019701260D371D481D591D69966CACF6
:101040007DAC8EAC9FAC6997C401AA27BB27280F43
:10105000391F4A1F5B1F2E153F054007510748F4F3
:10106000E12CF12C61E0062F112DAE0CBF1CC01E2F
:10107000D11ECA01AA27BB27BC01CD016A0D7B1D69
:101080008C1D9D1D698C7A8C8B8C9C8C66167706CA
:101090008806990640F1661577058805990509F0D7
:1010A00043C0D9019927882769962CAD3DAD4EAD37
:1010B0005FAD699740705070820F931FA41FB51FDA
:1010C0002DA53EA54FA558A96E960FAC6E9704C0EE
:1010D000220F331F441F551F0A94D2F728173907D0
:1010E0004A075B0708F509A91AA92BA93CA90150D1
:1010F00010402040304009AB1AAB2BAB3CAB14C0C6
:1011000066247724430121E030E040E050E029AB41
:101110003AAB4BAB5CAB0BC066247724430119AAF6
:101120001AAA1BAA1CAA03C0662477244301FE0145
:10113000719688E0DF011D928A95E9F7A9A8BAA8FF
:10114000CBA8DCA8A98ABA8ACB8ADC8A6D8A7E8A77
:101150008F8A988E29A93A894B895C89662D7E8968
:101160008F89988DC25ADF4FE2E10C9422118130B1
:1011700049F0813028F0823039F0833041F406C0E4
:101180006ABB089567BB089564BB089561BB089569
:10119000813049F0813028F0823039F0833041F4D9
:1011A00006C06BBB089568BB089565BB089562BB1C
:1011B0000895813049F1813038F0823009F444C01B
:1011C000833009F07EC05FC0413069F4EBE3F0E0AA
:1011D000208181E090E002C0880F991F6A95E2F7B4
:1011E000282B20830895442309F06BC0EBE3F0E043
:1011F000208181E090E002C0880F991F6A95E2F794
:101200008095822380830895413069F4E8E3F0E01B
:10121000208181E090E002C0880F991F6A95E2F773
:10122000282B20830895442309F04BC0E8E3F0E025
:10123000208181E090E002C0880F991F6A95E2F753
:101240008095822380830895413069F4E5E3F0E0DE
:10125000208181E090E002C0880F991F6A95E2F733
:10126000282B20830895442361F5E5E3F0E02081F5
:1012700081E090E002C0880F991F6A95E2F780959F
:10128000822380830895413069F4E2E3F0E0208115
:1012900081E090E002C0880F991F6A95E2F7282B41
:1012A00020830895442369F4E2E3F0E0208181E0A3
:1012B00090E002C0880F991F6A95E2F7809582231B
:1012C00080830895813049F1813038F0823009F40B
:1012D00044C0833009F07EC05FC0413069F4EAE366
:1012E000F0E0208181E090E002C0880F991F6A95AC
:1012F000E2F7282B20830895442309F06BC0EAE32A
:10130000F0E0208181E090E002C0880F991F6A958B
:10131000E2F78095822380830895413069F4E7E302
:10132000F0E0208181E090E002C0880F991F6A956B
:10133000E2F7282B20830895442309F04BC0E7E30C
:10134000F0E0208181E090E002C0880F991F6A954B
:10135000E2F78095822380830895413069F4E4E3C5
:10136000F0E0208181E090E002C0880F991F6A952B
:10137000E2F7282B20830895442361F5E4E3F0E0AD
:10138000208181E090E002C0880F991F6A95E2F702
:101390008095822380830895413069F4E1E3F0E091
:1013A000208181E090E002C0880F991F6A95E2F7E2
:1013B000282B20830895442369F4E1E3F0E02081A1
:1013C00081E090E002C0880F991F6A95E2F780954E
:1013D000822380830895823389F0833328F4803315
:1013E00041F08133F1F40FC0833391F08433C9F4B9
:1013F00014C080E060E00E94C808089580E065E0C5
:101400000E94C808089580E06AE00E94C808089514
:1014100080E068E00E94C808089580E062E00E94D1
:10142000C80808952F923F924F925F926F927F92D9
:101430009F92AF92BF92CF92DF92EF92FF920F9363
:101440001F93DF93CF9300D000D0CDB7DEB79924A0
:101450009C0140E050E029833A834B835C83222443
:101460003324239420E23EE4281B390B290166240F
:10147000772483E060E041E00E94D90869817A81A5
:101480008B819C810E94AC0F5B016C012BEA3AEAD4
:101490004AE250E40E9462107B018C0120E030E0BF
:1014A00040E85FE30E94140F882314F461E051C008
:1014B000C801B70120E030E04FE753E40E945E101E
:1014C00018160CF042C0C601B50120E030E04AE732
:1014D00054E40E94180F5B016C0120E030E04AEFF9
:1014E00054E40E9462107B018C0120E030E040E86F
:1014F0005FE30E94140F882314F4B10122C0C801D5
:10150000B70120E03FEF4FE757E40E945E10181646
:10151000A4F4C601B50120E030E040E251E40E94AD
:1015200062100E94800FCB01672BA9F0E8ECF0E07D
:101530003197F1F70197D1F70EC0C801B7010E94AA
:10154000800FCB010197F1F706C0C801B7010E94D7
:10155000800F6A95F1F783E060E040E00E94D908CF
:10156000C301B2010E94AC0F5B016C012BEA3AEAA5
:101570004AE250E40E9462107B018C0120E030E0DE
:1015800040E85FE30E94140F882314F461E051C027
:10159000C801B70120E030E04FE753E40E945E103D
:1015A00018160CF042C0C601B50120E030E04AE751
:1015B00054E40E94180F5B016C0120E030E04AEF18
:1015C00054E40E9462107B018C0120E030E040E88E
:1015D0005FE30E94140F882314F4B10122C0C801F4
:1015E000B70120E03FEF4FE757E40E945E10181666
:1015F000A4F4C601B50120E030E040E251E40E94CD
:1016000062100E94800FCB01672BA9F0E8ECF0E09C
:101610003197F1F70197D1F70EC0C801B7010E94C9
:10162000800FCB010197F1F706C0C801B7010E94F6
:10163000800F6A95F1F7939435E0931609F019CF6E
:101640000F900F900F900F90CF91DF911F910F91FE
:10165000FF90EF90DF90CF90BF90AF909F907F90E2
:101660006F905F904F903F902F9008956F927F9270
:101670008F929F92AF92BF92CF92DF92EF92FF92A2
:101680000F931F93CF93DF9380E06FEF0E94B70813
:1016900080E060E00E94C80883E060E041E00E94D2
:1016A0006209C8ECD0E00F2EF0E48F2EFFE19F2EF0
:1016B000F02D84EF91E0D82EC92E0F2EF8E96F2E71
:1016C000FAE37F2EF02DC401B82CA92E8CE697E00A
:1016D0000E94120A0E943A0D459720F081E30E9471
:1016E000EB09F4CF80E30E94EB0988EE93E00E94BF
:1016F000120A8D2D9C2DFE013197F1F70197D9F734
:101700000E943A0D7C0184EC99E00E94120A8D2D12
:101710009C2DFE013197F1F70197D9F70E943A0D00
:101720008C0185E1E816F10418F40531110538F152
:101730008CE697E00E94120A82E30E94EB09940172
:10174000CE010197F1F721503040D1F780E30E949C
:10175000EB090E151F0528F483E30E94EB099301A2
:1017600004C084E30E94EB099301CE010197F1F7D5
:1017700021503040D1F780E30E94EB09A7CF81E3ED
:101780000E94EB098CE697E00E94120A82E30E9415
:10179000EB098B2D9A2DFE013197F1F70197D9F7BF
:1017A00080E30E94EB099ECF90936F0180936E01BE
:1017B00008951F920F920FB60F9211242F933F930B
:1017C0004F935F936F937F938F939F93AF93BF9349
:1017D000EF93FF93E0916E01F0916F010995FF91F6
:1017E000EF91BF91AF919F918F917F916F915F9199
:1017F0004F913F912F910F900FBE0F901F90189512
:101800001F920F920FB60F9211242F933F934F9375
:101810005F936F937F938F939F93AF93BF93EF9358
:10182000FF93E0916801F09169010995FF91EF91B3
:10183000BF91AF919F918F917F916F915F914F91E8
:101840003F912F910F900FBE0F901F9018951F92F0
:101850000F920FB60F9211242F933F934F935F93E4
:101860006F937F938F939F93AF93BF93EF93FF9368
:10187000E0916A01F0916B010995FF91EF91BF91A1
:10188000AF919F918F917F916F915F914F913F9118
:101890002F910F900FBE0F901F9018951F920F92CF
:1018A0000FB60F9211242F933F934F935F936F9333
:1018B0007F938F939F93AF93BF93EF93FF93E091A9
:1018C0006C01F0916D010995FF91EF91BF91AF917E
:1018D0009F918F917F916F915F914F913F912F9148
:1018E0000F900FBE0F901F9018959C01E3E5F0E05C
:1018F00080818860808380818F7B80832034310564
:10190000F1F02134310538F42130310561F028300F
:10191000310531F50EC081E020303807B1F020509C
:101920003440F1F418C0E3E5F0E080818160808309
:1019300017C0E3E5F0E080818260808311C0E3E5B9
:10194000F0E08081836080830BC0E3E5F0E080817C
:101950008460808305C0E3E5F0E08081856080835A
:101960006CBF442359F0EFE5F0E08081806880830C
:10197000E9E5F0E08081826080830895E9E5F0E0A8
:1019800080818D7F808308951F93809160012091D5
:101990006101309162014091630160916401F091B5
:1019A0006501A091660110916701B82FBF5F91E0BA
:1019B000B81708F090E0E22F81E0221708F080E0ED
:1019C000292F2E0F91E02E1708F090E0892BE22F9F
:1019D000732F91E0331708F090E0282F270F81E054
:1019E000271708F080E0982B722F542F81E04417BE
:1019F00008F080E0292F250F91E0251708F090E0EE
:101A0000892B522F462F91E0661708F090E0282F7F
:101A1000240F81E0241708F080E0982B422F3F2FFD
:101A200021E0FF1708F020E0930F81E0931708F002
:101A300080E0282B392F9A2F81E0AA1708F080E048
:101A4000622F690F21E0691708F020E0822B810FD7
:101A5000B0936001E0936101709362015093630160
:101A60004093640130936501609366018093670140
:101A70001F9108955F926F927F928F929F92AF9283
:101A8000BF92CF92DF92EF92FF920F931F9383E06A
:101A900061E041E00E94620983E062E040E00E9470
:101AA000620983E062E041E00E94D90881E090E0B1
:101AB0006FEF41E00E94750C84EC9CE00E94D40B17
:101AC00083E061E041E00E94D9088AE18A95F1F75C
:101AD00083E061E040E00E94D90812BE83E085BF48
:101AE000EAE5F0E0808186FFFDCFEAE5F0E0808165
:101AF0008064808312BE1092600110926101109286
:101B000062011092630110926401109265011092BB
:101B100066011092670182E085BF808186FFFDCF5C
:101B2000EAE5F0E080818064808352B61091600124
:101B3000F0906101E0906201D0906301C090640177
:101B4000B09065019090660180906701EFE5F0E04C
:101B500080818F77808328EE33E048EC50E0CA0123
:101B60000197F1F721503040D1F7212F3F2D4E2D15
:101B70005D2D6C2D7B2D892D982D04E00E94C301D5
:101B8000A22EA11AE1E02A1508F0E0E0132F1F1998
:101B900021E0311708F020E0312F3E1BE32F31E028
:101BA0001E1708F030E0232B1E2FF42EFE1831E014
:101BB0004F1508F030E04F2D421B21E0F41608F0DD
:101BC00020E0322BF42EE52EED1821E05E1508F012
:101BD00020E04E2D431B31E0E41608F030E0232BCB
:101BE000E42ED62EDC1831E06D1508F030E04D2DD6
:101BF000421B21E0D41608F020E0322BD42EC72E51
:101C0000CB1841E07C1508F040E02C2D231B322F2F
:101C100021E0C31608F020E0422BC32EB82EB918DD
:101C200021E08B1508F020E03B2D341B81E0B3163A
:101C300008F080E0282BB32E792E7818721A2A2DFE
:101C4000312F4F2D5E2D6D2D7C2D8B2D972D04E08A
:101C50000E94C301082F692EAA2DA20FE1E0AA1548
:101C600008F0E0E0310F21E0311708F020E0FE2F0E
:101C7000F30FE1E0F31708F0E0E02E2B3F2FBF2D2C
:101C8000B40FE1E0BF1508F0E0E0F22FFB0F21E018
:101C9000FB1708F020E0E22BBF2F8E2D850F21E0EF
:101CA0008E1508F020E0FE2FF80FE1E0F81708F09D
:101CB000E0E02E2B8F2F9D2D960FE1E09D1508F073
:101CC000E0E0F22FF90F21E0F91708F020E0E22B15
:101CD0009F2F9C2C970EF1E09C1408F0F0E0E90D8A
:101CE00021E0E91508F020E0F22B9E2E8B2C800ECF
:101CF00021E08B1408F020E0F80DE1E0F81508F081
:101D0000E0E02E2B8F2E670C620EBB24CC24DD244A
:101D1000EE24FF2487012A2F250DF1E02A1708F071
:101D2000F0E0732E7B0CE1E0731608F0E0E0AF2FDB
:101D3000A70DF1E0A71508F0F0E0EF2B7A2E4B2F5E
:101D40004C0DF1E04B1708F0F0E0AE2FA40FE1E0EE
:101D5000A41708F0E0E0FE2B4A2F582F5D0DE1E0BC
:101D6000581708F0E0E0AF2FA50FF1E0A51708F035
:101D7000F0E0EF2B5A2F692F6E0DF1E0691708F094
:101D8000F0E0AE2FA60FE1E0A61708F0E0E0FE2B92
:101D90006A2F792D7F0D81E0791508F080E0F70F2B
:101DA000E1E0F71708F0E0E08E2B7F2FE82DE00F41
:101DB000A1E0E81508F0A0E08E0FF1E08E1708F022
:101DC000F0E0AF2B962D910F372D9A0F01E00E9476
:101DD00044010F2EFCEFAF2EF02D0F2EF5E8BF2E95
:101DE000F02DCC24DD24EE24FF2400E010E00E943E
:101DF0004900AA240F2EF2E1BF2EF02D0F2EFAE794
:101E0000CF2EF02D0E944202932F822F1F910F910F
:101E1000FF90EF90DF90CF90BF90AF909F908F900A
:101E20007F906F905F900895D4D008F481E008957A
:101E30000CD00AC102D140F0F9D030F021F45F3F5C
:101E400019F0EBC0511134C1EEC00FD198F39923B2
:101E5000C9F35523B1F3951B550BBB27AA2762176E
:101E60007307840738F09F5F5F4F220F331F441FB3
:101E7000AA1FA9F333D00E2E3AF0E0E830D09150EB
:101E80005040E695001CCAF729D0FE2F27D0660FD8
:101E9000771F881FBB1F261737074807AB07B0E817
:101EA00009F0BB0B802DBF01FF2793585F4F2AF02D
:101EB0009E3F510568F0B1C0FBC05F3FECF3983E18
:101EC000DCF3869577956795B795F7959F5FC9F78A
:101ED000880F911D9695879597F90895E1E0660F13
:101EE000771F881FBB1F621773078407BA0720F08C
:101EF000621B730B840BBA0BEE1F88F7E0950895F5
:101F0000BCD088F09F5790F0B92F9927B751A0F017
:101F1000D1F0660F771F881F991F1AF0BA95C9F77D
:101F200012C0B13081F0C3D0B1E00895C0C0672FB6
:101F3000782F8827B85F39F0B93FCCF3869577952D
:101F40006795B395D9F73EF4909580957095619516
:101F50007F4F8F4F9F4F0895E89409C097FB3EF441
:101F600090958095709561957F4F8F4F9F4F9923E6
:101F7000A9F0F92F96E9BB279395F6958795779564
:101F80006795B795F111F8CFFAF4BB0F11F460FF24
:101F90001BC06F5F7F4F8F4F9F4F16C0882311F07C
:101FA00096E911C0772321F09EE8872F762F05C090
:101FB000662371F096E8862F70E060E02AF09A952B
:101FC000660F771F881FDAF7880F9695879597F920
:101FD0000895990F0008550FAA0BE0E8FEEF1616BA
:101FE0001706E807F907C0F012161306E407F5070D
:101FF00098F0621B730B840B950B39F40A2661F081
:10200000232B242B252B21F408950A2609F4A14023
:10201000A6958FEF811D811D089597F99F6780E830
:1020200070E060E008959FEF80EC089500240A942A
:102030001616170618060906089500240A941216A3
:102040001306140605060895092E0394000C11F4D6
:10205000882352F0BB0F40F4BF2B11F460FF04C083
:102060006F5F7F4F8F4F9F4F089557FD9058440FDC
:10207000551F59F05F3F71F04795880F97FB991FE7
:1020800061F09F3F79F087950895121613061406A4
:10209000551FF2CF4695F1DF08C016161706180631
:1020A000991FF1CF86957105610508940895E8940C
:1020B000BB2766277727CB0197F908958ADF08F4B5
:1020C0008FEF08950BD0C0CFB1DF28F0B6DF18F046
:1020D000952309F0A2CFA7CF1124EACFC6DFA0F342
:1020E000959FD1F3950F50E0551F629FF001729FAD
:1020F000BB27F00DB11D639FAA27F00DB11DAA1FCC
:10210000649F6627B00DA11D661F829F2227B00D18
:10211000A11D621F739FB00DA11D621F839FA00DA3
:10212000611D221F749F3327A00D611D231F849FF3
:10213000600D211D822F762F6A2F11249F5750404A
:102140008AF0E1F088234AF0EE0FFF1FBB1F661FE5
:10215000771F881F91505040A9F79E3F510570F09E
:102160005CCFA6CF5F3FECF3983EDCF38695779586
:102170006795B795F795E7959F5FC1F7FE2B880F99
:10218000911D9695879597F90895629FD001739F49
:10219000F001829FE00DF11D649FE00DF11D929F03
:1021A000F00D839FF00D749FF00D659FF00D992742
:1021B000729FB00DE11DF91F639FB00DE11DF91F66
:1021C000BD01CF0111240895A1E21A2EAA1BBB1B49
:1021D000FD010DC0AA1FBB1FEE1FFF1FA217B307F3
:1021E000E407F50720F0A21BB30BE40BF50B661F09
:1021F000771F881F991F1A9469F7609570958095CD
:1022000090959B01AC01BD01CF0108952F923F92A3
:102210004F925F926F927F928F929F92AF92BF92F6
:10222000CF92DF92EF92FF920F931F93CF93DF93A2
:10223000CDB7DEB7CA1BDB0B0FB6F894DEBF0FBEFF
:10224000CDBF09942A88398848885F846E847D844C
:102250008C849B84AA84B984C884DF80EE80FD804E
:102260000C811B81AA81B981CE0FD11D0FB6F894C4
:0E227000DEBF0FBECDBFED010895F894FFCF85
:10227E00000102020303030304040404040404041F
:10228E0005050505050505050505050505050505F0
:10229E0006060606060606060606060606060606D0
:1022AE0006060606060606060606060606060606C0
:1022BE0007070707070707070707070707070707A0
:1022CE000707070707070707070707070707070790
:1022DE000707070707070707070707070707070780
:1022EE000707070707070707070707070707070770
:1022FE000808080808080808080808080808080850
:10230E00080808080808080808080808080808083F
:10231E00080808080808080808080808080808082F
:10232E00080808080808080808080808080808081F
:10233E00080808080808080808080808080808080F
:10234E0008080808080808080808080808080808FF
:10235E0008080808080808080808080808080808EF
:10236E0008080808080808080808080808080808DF
:00000001FF
